{"project/contracts/PoCRegistry.sol":{"PoCRegistry":{"abi":[{"anonymous":false,"inputs":[{"indexed":true,"internalType":"bytes32","name":"pocHash","type":"bytes32"},{"indexed":true,"internalType":"address","name":"target","type":"address"},{"indexed":true,"internalType":"uint16","name":"attackedVictimBlockNumber","type":"uint16"},{"indexed":false,"internalType":"string","name":"pocType","type":"string"},{"indexed":false,"internalType":"string","name":"metadataURI","type":"string"},{"indexed":false,"internalType":"string","name":"severity","type":"string"},{"indexed":false,"internalType":"string","name":"summary","type":"string"}],"name":"VerifiedPoC","type":"event"},{"inputs":[{"internalType":"bytes32","name":"pocHash","type":"bytes32"},{"internalType":"address","name":"target","type":"address"},{"internalType":"uint16","name":"attackedVictimBlockNumber","type":"uint16"},{"internalType":"string","name":"pocType","type":"string"},{"internalType":"string","name":"metadataURI","type":"string"},{"internalType":"string","name":"severity","type":"string"},{"internalType":"string","name":"summary","type":"string"}],"name":"registerPoC","outputs":[],"stateMutability":"nonpayable","type":"function"}],"evm":{"bytecode":{"linkReferences":{},"object":"608060405234801561001057600080fd5b50610419806100206000396000f3fe608060405234801561001057600080fd5b506004361061002b5760003560e01c806397e6051814610030575b600080fd5b61004a600480360381019061004591906101f8565b61004c565b005b8861ffff168a73ffffffffffffffffffffffffffffffffffffffff168c7f890147dbd06332940592c417e7ab81abc4d6ab31e545d7b95fe82062257640c28b8b8b8b8b8b8b8b6040516100a698979695949392919061037a565b60405180910390a45050505050505050505050565b600080fd5b600080fd5b6000819050919050565b6100d8816100c5565b81146100e357600080fd5b50565b6000813590506100f5816100cf565b92915050565b600073ffffffffffffffffffffffffffffffffffffffff82169050919050565b6000610126826100fb565b9050919050565b6101368161011b565b811461014157600080fd5b50565b6000813590506101538161012d565b92915050565b600061ffff82169050919050565b61017081610159565b811461017b57600080fd5b50565b60008135905061018d81610167565b92915050565b600080fd5b600080fd5b600080fd5b60008083601f8401126101b8576101b7610193565b5b8235905067ffffffffffffffff8111156101d5576101d4610198565b5b6020830191508360018202830111156101f1576101f061019d565b5b9250929050565b600080600080600080600080600080600060e08c8e03121561021d5761021c6100bb565b5b600061022b8e828f016100e6565b9b5050602061023c8e828f01610144565b9a5050604061024d8e828f0161017e565b99505060608c013567ffffffffffffffff81111561026e5761026d6100c0565b5b61027a8e828f016101a2565b985098505060808c013567ffffffffffffffff81111561029d5761029c6100c0565b5b6102a98e828f016101a2565b965096505060a08c013567ffffffffffffffff8111156102cc576102cb6100c0565b5b6102d88e828f016101a2565b945094505060c08c013567ffffffffffffffff8111156102fb576102fa6100c0565b5b6103078e828f016101a2565b92509250509295989b509295989b9093969950565b600082825260208201905092915050565b82818337600083830152505050565b6000601f19601f8301169050919050565b6000610359838561031c565b935061036683858461032d565b61036f8361033c565b840190509392505050565b60006080820190508181036000830152610395818a8c61034d565b905081810360208301526103aa81888a61034d565b905081810360408301526103bf81868861034d565b905081810360608301526103d481848661034d565b9050999850505050505050505056fea26469706673582212207f4b51975e7bcd3e8ccb552cf83bd8c4aef1551c911e9e092a5e18acb4f3ab4d64736f6c63430008110033","opcodes":"PUSH1 0x80 PUSH1 0x40 MSTORE CALLVALUE DUP1 ISZERO PUSH2 0x10 JUMPI PUSH1 0x0 DUP1 REVERT JUMPDEST POP PUSH2 0x419 DUP1 PUSH2 0x20 PUSH1 0x0 CODECOPY PUSH1 0x0 RETURN INVALID PUSH1 0x80 PUSH1 0x40 MSTORE CALLVALUE DUP1 ISZERO PUSH2 0x10 JUMPI PUSH1 0x0 DUP1 REVERT JUMPDEST POP PUSH1 0x4 CALLDATASIZE LT PUSH2 0x2B JUMPI PUSH1 0x0 CALLDATALOAD PUSH1 0xE0 SHR DUP1 PUSH4 0x97E60518 EQ PUSH2 0x30 JUMPI JUMPDEST PUSH1 0x0 DUP1 REVERT JUMPDEST PUSH2 0x4A PUSH1 0x4 DUP1 CALLDATASIZE SUB DUP2 ADD SWAP1 PUSH2 0x45 SWAP2 SWAP1 PUSH2 0x1F8 JUMP JUMPDEST PUSH2 0x4C JUMP JUMPDEST STOP JUMPDEST DUP9 PUSH2 0xFFFF AND DUP11 PUSH20 0xFFFFFFFFFFFFFFFFFFFFFFFFFFFFFFFFFFFFFFFF AND DUP13 PUSH32 0x890147DBD06332940592C417E7AB81ABC4D6AB31E545D7B95FE82062257640C2 DUP12 DUP12 DUP12 DUP12 DUP12 DUP12 DUP12 DUP12 PUSH1 0x40 MLOAD PUSH2 0xA6 SWAP9 SWAP8 SWAP7 SWAP6 SWAP5 SWAP4 SWAP3 SWAP2 SWAP1 PUSH2 0x37A JUMP JUMPDEST PUSH1 0x40 MLOAD DUP1 SWAP2 SUB SWAP1 LOG4 POP POP POP POP POP POP POP POP POP POP POP JUMP JUMPDEST PUSH1 0x0 DUP1 REVERT JUMPDEST PUSH1 0x0 DUP1 REVERT JUMPDEST PUSH1 0x0 DUP2 SWAP1 POP SWAP2 SWAP1 POP JUMP JUMPDEST PUSH2 0xD8 DUP2 PUSH2 0xC5 JUMP JUMPDEST DUP2 EQ PUSH2 0xE3 JUMPI PUSH1 0x0 DUP1 REVERT JUMPDEST POP JUMP JUMPDEST PUSH1 0x0 DUP2 CALLDATALOAD SWAP1 POP PUSH2 0xF5 DUP2 PUSH2 0xCF JUMP JUMPDEST SWAP3 SWAP2 POP POP JUMP JUMPDEST PUSH1 0x0 PUSH20 0xFFFFFFFFFFFFFFFFFFFFFFFFFFFFFFFFFFFFFFFF DUP3 AND SWAP1 POP SWAP2 SWAP1 POP JUMP JUMPDEST PUSH1 0x0 PUSH2 0x126 DUP3 PUSH2 0xFB JUMP JUMPDEST SWAP1 POP SWAP2 SWAP1 POP JUMP JUMPDEST PUSH2 0x136 DUP2 PUSH2 0x11B JUMP JUMPDEST DUP2 EQ PUSH2 0x141 JUMPI PUSH1 0x0 DUP1 REVERT JUMPDEST POP JUMP JUMPDEST PUSH1 0x0 DUP2 CALLDATALOAD SWAP1 POP PUSH2 0x153 DUP2 PUSH2 0x12D JUMP JUMPDEST SWAP3 SWAP2 POP POP JUMP JUMPDEST PUSH1 0x0 PUSH2 0xFFFF DUP3 AND SWAP1 POP SWAP2 SWAP1 POP JUMP JUMPDEST PUSH2 0x170 DUP2 PUSH2 0x159 JUMP JUMPDEST DUP2 EQ PUSH2 0x17B JUMPI PUSH1 0x0 DUP1 REVERT JUMPDEST POP JUMP JUMPDEST PUSH1 0x0 DUP2 CALLDATALOAD SWAP1 POP PUSH2 0x18D DUP2 PUSH2 0x167 JUMP JUMPDEST SWAP3 SWAP2 POP POP JUMP JUMPDEST PUSH1 0x0 DUP1 REVERT JUMPDEST PUSH1 0x0 DUP1 REVERT JUMPDEST PUSH1 0x0 DUP1 REVERT JUMPDEST PUSH1 0x0 DUP1 DUP4 PUSH1 0x1F DUP5 ADD SLT PUSH2 0x1B8 JUMPI PUSH2 0x1B7 PUSH2 0x193 JUMP JUMPDEST JUMPDEST DUP3 CALLDATALOAD SWAP1 POP PUSH8 0xFFFFFFFFFFFFFFFF DUP2 GT ISZERO PUSH2 0x1D5 JUMPI PUSH2 0x1D4 PUSH2 0x198 JUMP JUMPDEST JUMPDEST PUSH1 0x20 DUP4 ADD SWAP2 POP DUP4 PUSH1 0x1 DUP3 MUL DUP4 ADD GT ISZERO PUSH2 0x1F1 JUMPI PUSH2 0x1F0 PUSH2 0x19D JUMP JUMPDEST JUMPDEST SWAP3 POP SWAP3 SWAP1 POP JUMP JUMPDEST PUSH1 0x0 DUP1 PUSH1 0x0 DUP1 PUSH1 0x0 DUP1 PUSH1 0x0 DUP1 PUSH1 0x0 DUP1 PUSH1 0x0 PUSH1 0xE0 DUP13 DUP15 SUB SLT ISZERO PUSH2 0x21D JUMPI PUSH2 0x21C PUSH2 0xBB JUMP JUMPDEST JUMPDEST PUSH1 0x0 PUSH2 0x22B DUP15 DUP3 DUP16 ADD PUSH2 0xE6 JUMP JUMPDEST SWAP12 POP POP PUSH1 0x20 PUSH2 0x23C DUP15 DUP3 DUP16 ADD PUSH2 0x144 JUMP JUMPDEST SWAP11 POP POP PUSH1 0x40 PUSH2 0x24D DUP15 DUP3 DUP16 ADD PUSH2 0x17E JUMP JUMPDEST SWAP10 POP POP PUSH1 0x60 DUP13 ADD CALLDATALOAD PUSH8 0xFFFFFFFFFFFFFFFF DUP2 GT ISZERO PUSH2 0x26E JUMPI PUSH2 0x26D PUSH2 0xC0 JUMP JUMPDEST JUMPDEST PUSH2 0x27A DUP15 DUP3 DUP16 ADD PUSH2 0x1A2 JUMP JUMPDEST SWAP9 POP SWAP9 POP POP PUSH1 0x80 DUP13 ADD CALLDATALOAD PUSH8 0xFFFFFFFFFFFFFFFF DUP2 GT ISZERO PUSH2 0x29D JUMPI PUSH2 0x29C PUSH2 0xC0 JUMP JUMPDEST JUMPDEST PUSH2 0x2A9 DUP15 DUP3 DUP16 ADD PUSH2 0x1A2 JUMP JUMPDEST SWAP7 POP SWAP7 POP POP PUSH1 0xA0 DUP13 ADD CALLDATALOAD PUSH8 0xFFFFFFFFFFFFFFFF DUP2 GT ISZERO PUSH2 0x2CC JUMPI PUSH2 0x2CB PUSH2 0xC0 JUMP JUMPDEST JUMPDEST PUSH2 0x2D8 DUP15 DUP3 DUP16 ADD PUSH2 0x1A2 JUMP JUMPDEST SWAP5 POP SWAP5 POP POP PUSH1 0xC0 DUP13 ADD CALLDATALOAD PUSH8 0xFFFFFFFFFFFFFFFF DUP2 GT ISZERO PUSH2 0x2FB JUMPI PUSH2 0x2FA PUSH2 0xC0 JUMP JUMPDEST JUMPDEST PUSH2 0x307 DUP15 DUP3 DUP16 ADD PUSH2 0x1A2 JUMP JUMPDEST SWAP3 POP SWAP3 POP POP SWAP3 SWAP6 SWAP9 SWAP12 POP SWAP3 SWAP6 SWAP9 SWAP12 SWAP1 SWAP4 SWAP7 SWAP10 POP JUMP JUMPDEST PUSH1 0x0 DUP3 DUP3 MSTORE PUSH1 0x20 DUP3 ADD SWAP1 POP SWAP3 SWAP2 POP POP JUMP JUMPDEST DUP3 DUP2 DUP4 CALLDATACOPY PUSH1 0x0 DUP4 DUP4 ADD MSTORE POP POP POP JUMP JUMPDEST PUSH1 0x0 PUSH1 0x1F NOT PUSH1 0x1F DUP4 ADD AND SWAP1 POP SWAP2 SWAP1 POP JUMP JUMPDEST PUSH1 0x0 PUSH2 0x359 DUP4 DUP6 PUSH2 0x31C JUMP JUMPDEST SWAP4 POP PUSH2 0x366 DUP4 DUP6 DUP5 PUSH2 0x32D JUMP JUMPDEST PUSH2 0x36F DUP4 PUSH2 0x33C JUMP JUMPDEST DUP5 ADD SWAP1 POP SWAP4 SWAP3 POP POP POP JUMP JUMPDEST PUSH1 0x0 PUSH1 0x80 DUP3 ADD SWAP1 POP DUP2 DUP2 SUB PUSH1 0x0 DUP4 ADD MSTORE PUSH2 0x395 DUP2 DUP11 DUP13 PUSH2 0x34D JUMP JUMPDEST SWAP1 POP DUP2 DUP2 SUB PUSH1 0x20 DUP4 ADD MSTORE PUSH2 0x3AA DUP2 DUP9 DUP11 PUSH2 0x34D JUMP JUMPDEST SWAP1 POP DUP2 DUP2 SUB PUSH1 0x40 DUP4 ADD MSTORE PUSH2 0x3BF DUP2 DUP7 DUP9 PUSH2 0x34D JUMP JUMPDEST SWAP1 POP DUP2 DUP2 SUB PUSH1 0x60 DUP4 ADD MSTORE PUSH2 0x3D4 DUP2 DUP5 DUP7 PUSH2 0x34D JUMP JUMPDEST SWAP1 POP SWAP10 SWAP9 POP POP POP POP POP POP POP POP POP JUMP INVALID LOG2 PUSH5 0x6970667358 0x22 SLT KECCAK256 PUSH32 0x4B51975E7BCD3E8CCB552CF83BD8C4AEF1551C911E9E092A5E18ACB4F3AB4D64 PUSH20 0x6F6C634300081100330000000000000000000000 "},"methodIdentifiers":{"registerPoC(bytes32,address,uint16,string,string,string,string)":"97e60518"}}}}}