{"project/contracts/PoCRegistry.sol":{"PoCRegistry":{"abi":[{"anonymous":false,"inputs":[{"indexed":true,"internalType":"bytes32","name":"pocHash","type":"bytes32"},{"indexed":true,"internalType":"address","name":"target","type":"address"},{"indexed":true,"internalType":"uint256","name":"attackedVictimBlockNumber","type":"uint256"},{"indexed":false,"internalType":"string","name":"pocType","type":"string"},{"indexed":false,"internalType":"string","name":"metadataURI","type":"string"},{"indexed":false,"internalType":"string","name":"severity","type":"string"},{"indexed":false,"internalType":"string","name":"summary","type":"string"}],"name":"VerifiedPoC","type":"event"},{"inputs":[{"internalType":"bytes32","name":"pocHash","type":"bytes32"},{"internalType":"address","name":"target","type":"address"},{"internalType":"uint256","name":"attackedVictimBlockNumber","type":"uint256"},{"internalType":"string","name":"pocType","type":"string"},{"internalType":"string","name":"metadataURI","type":"string"},{"internalType":"string","name":"severity","type":"string"},{"internalType":"string","name":"summary","type":"string"}],"name":"registerPoC","outputs":[],"stateMutability":"nonpayable","type":"function"}],"evm":{"bytecode":{"linkReferences":{},"object":"608060405234801561001057600080fd5b50610411806100206000396000f3fe608060405234801561001057600080fd5b506004361061002b5760003560e01c8063c61d735c14610030575b600080fd5b61004a600480360381019061004591906101f0565b61004c565b005b888a73ffffffffffffffffffffffffffffffffffffffff168c7ff19c688163798e45d34eff57ad8456ba82c157931e0f5b8f46805348fd5a789c8b8b8b8b8b8b8b8b6040516100a2989796959493929190610372565b60405180910390a45050505050505050505050565b600080fd5b600080fd5b6000819050919050565b6100d4816100c1565b81146100df57600080fd5b50565b6000813590506100f1816100cb565b92915050565b600073ffffffffffffffffffffffffffffffffffffffff82169050919050565b6000610122826100f7565b9050919050565b61013281610117565b811461013d57600080fd5b50565b60008135905061014f81610129565b92915050565b6000819050919050565b61016881610155565b811461017357600080fd5b50565b6000813590506101858161015f565b92915050565b600080fd5b600080fd5b600080fd5b60008083601f8401126101b0576101af61018b565b5b8235905067ffffffffffffffff8111156101cd576101cc610190565b5b6020830191508360018202830111156101e9576101e8610195565b5b9250929050565b600080600080600080600080600080600060e08c8e031215610215576102146100b7565b5b60006102238e828f016100e2565b9b505060206102348e828f01610140565b9a505060406102458e828f01610176565b99505060608c013567ffffffffffffffff811115610266576102656100bc565b5b6102728e828f0161019a565b985098505060808c013567ffffffffffffffff811115610295576102946100bc565b5b6102a18e828f0161019a565b965096505060a08c013567ffffffffffffffff8111156102c4576102c36100bc565b5b6102d08e828f0161019a565b945094505060c08c013567ffffffffffffffff8111156102f3576102f26100bc565b5b6102ff8e828f0161019a565b92509250509295989b509295989b9093969950565b600082825260208201905092915050565b82818337600083830152505050565b6000601f19601f8301169050919050565b60006103518385610314565b935061035e838584610325565b61036783610334565b840190509392505050565b6000608082019050818103600083015261038d818a8c610345565b905081810360208301526103a281888a610345565b905081810360408301526103b7818688610345565b905081810360608301526103cc818486610345565b9050999850505050505050505056fea2646970667358221220addc6702396b9a3d9e8773b5e8386b56f6c792f726675460fe09667cb2e00acd64736f6c63430008110033","opcodes":"PUSH1 0x80 PUSH1 0x40 MSTORE CALLVALUE DUP1 ISZERO PUSH2 0x10 JUMPI PUSH1 0x0 DUP1 REVERT JUMPDEST POP PUSH2 0x411 DUP1 PUSH2 0x20 PUSH1 0x0 CODECOPY PUSH1 0x0 RETURN INVALID PUSH1 0x80 PUSH1 0x40 MSTORE CALLVALUE DUP1 ISZERO PUSH2 0x10 JUMPI PUSH1 0x0 DUP1 REVERT JUMPDEST POP PUSH1 0x4 CALLDATASIZE LT PUSH2 0x2B JUMPI PUSH1 0x0 CALLDATALOAD PUSH1 0xE0 SHR DUP1 PUSH4 0xC61D735C EQ PUSH2 0x30 JUMPI JUMPDEST PUSH1 0x0 DUP1 REVERT JUMPDEST PUSH2 0x4A PUSH1 0x4 DUP1 CALLDATASIZE SUB DUP2 ADD SWAP1 PUSH2 0x45 SWAP2 SWAP1 PUSH2 0x1F0 JUMP JUMPDEST PUSH2 0x4C JUMP JUMPDEST STOP JUMPDEST DUP9 DUP11 PUSH20 0xFFFFFFFFFFFFFFFFFFFFFFFFFFFFFFFFFFFFFFFF AND DUP13 PUSH32 0xF19C688163798E45D34EFF57AD8456BA82C157931E0F5B8F46805348FD5A789C DUP12 DUP12 DUP12 DUP12 DUP12 DUP12 DUP12 DUP12 PUSH1 0x40 MLOAD PUSH2 0xA2 SWAP9 SWAP8 SWAP7 SWAP6 SWAP5 SWAP4 SWAP3 SWAP2 SWAP1 PUSH2 0x372 JUMP JUMPDEST PUSH1 0x40 MLOAD DUP1 SWAP2 SUB SWAP1 LOG4 POP POP POP POP POP POP POP POP POP POP POP JUMP JUMPDEST PUSH1 0x0 DUP1 REVERT JUMPDEST PUSH1 0x0 DUP1 REVERT JUMPDEST PUSH1 0x0 DUP2 SWAP1 POP SWAP2 SWAP1 POP JUMP JUMPDEST PUSH2 0xD4 DUP2 PUSH2 0xC1 JUMP JUMPDEST DUP2 EQ PUSH2 0xDF JUMPI PUSH1 0x0 DUP1 REVERT JUMPDEST POP JUMP JUMPDEST PUSH1 0x0 DUP2 CALLDATALOAD SWAP1 POP PUSH2 0xF1 DUP2 PUSH2 0xCB JUMP JUMPDEST SWAP3 SWAP2 POP POP JUMP JUMPDEST PUSH1 0x0 PUSH20 0xFFFFFFFFFFFFFFFFFFFFFFFFFFFFFFFFFFFFFFFF DUP3 AND SWAP1 POP SWAP2 SWAP1 POP JUMP JUMPDEST PUSH1 0x0 PUSH2 0x122 DUP3 PUSH2 0xF7 JUMP JUMPDEST SWAP1 POP SWAP2 SWAP1 POP JUMP JUMPDEST PUSH2 0x132 DUP2 PUSH2 0x117 JUMP JUMPDEST DUP2 EQ PUSH2 0x13D JUMPI PUSH1 0x0 DUP1 REVERT JUMPDEST POP JUMP JUMPDEST PUSH1 0x0 DUP2 CALLDATALOAD SWAP1 POP PUSH2 0x14F DUP2 PUSH2 0x129 JUMP JUMPDEST SWAP3 SWAP2 POP POP JUMP JUMPDEST PUSH1 0x0 DUP2 SWAP1 POP SWAP2 SWAP1 POP JUMP JUMPDEST PUSH2 0x168 DUP2 PUSH2 0x155 JUMP JUMPDEST DUP2 EQ PUSH2 0x173 JUMPI PUSH1 0x0 DUP1 REVERT JUMPDEST POP JUMP JUMPDEST PUSH1 0x0 DUP2 CALLDATALOAD SWAP1 POP PUSH2 0x185 DUP2 PUSH2 0x15F JUMP JUMPDEST SWAP3 SWAP2 POP POP JUMP JUMPDEST PUSH1 0x0 DUP1 REVERT JUMPDEST PUSH1 0x0 DUP1 REVERT JUMPDEST PUSH1 0x0 DUP1 REVERT JUMPDEST PUSH1 0x0 DUP1 DUP4 PUSH1 0x1F DUP5 ADD SLT PUSH2 0x1B0 JUMPI PUSH2 0x1AF PUSH2 0x18B JUMP JUMPDEST JUMPDEST DUP3 CALLDATALOAD SWAP1 POP PUSH8 0xFFFFFFFFFFFFFFFF DUP2 GT ISZERO PUSH2 0x1CD JUMPI PUSH2 0x1CC PUSH2 0x190 JUMP JUMPDEST JUMPDEST PUSH1 0x20 DUP4 ADD SWAP2 POP DUP4 PUSH1 0x1 DUP3 MUL DUP4 ADD GT ISZERO PUSH2 0x1E9 JUMPI PUSH2 0x1E8 PUSH2 0x195 JUMP JUMPDEST JUMPDEST SWAP3 POP SWAP3 SWAP1 POP JUMP JUMPDEST PUSH1 0x0 DUP1 PUSH1 0x0 DUP1 PUSH1 0x0 DUP1 PUSH1 0x0 DUP1 PUSH1 0x0 DUP1 PUSH1 0x0 PUSH1 0xE0 DUP13 DUP15 SUB SLT ISZERO PUSH2 0x215 JUMPI PUSH2 0x214 PUSH2 0xB7 JUMP JUMPDEST JUMPDEST PUSH1 0x0 PUSH2 0x223 DUP15 DUP3 DUP16 ADD PUSH2 0xE2 JUMP JUMPDEST SWAP12 POP POP PUSH1 0x20 PUSH2 0x234 DUP15 DUP3 DUP16 ADD PUSH2 0x140 JUMP JUMPDEST SWAP11 POP POP PUSH1 0x40 PUSH2 0x245 DUP15 DUP3 DUP16 ADD PUSH2 0x176 JUMP JUMPDEST SWAP10 POP POP PUSH1 0x60 DUP13 ADD CALLDATALOAD PUSH8 0xFFFFFFFFFFFFFFFF DUP2 GT ISZERO PUSH2 0x266 JUMPI PUSH2 0x265 PUSH2 0xBC JUMP JUMPDEST JUMPDEST PUSH2 0x272 DUP15 DUP3 DUP16 ADD PUSH2 0x19A JUMP JUMPDEST SWAP9 POP SWAP9 POP POP PUSH1 0x80 DUP13 ADD CALLDATALOAD PUSH8 0xFFFFFFFFFFFFFFFF DUP2 GT ISZERO PUSH2 0x295 JUMPI PUSH2 0x294 PUSH2 0xBC JUMP JUMPDEST JUMPDEST PUSH2 0x2A1 DUP15 DUP3 DUP16 ADD PUSH2 0x19A JUMP JUMPDEST SWAP7 POP SWAP7 POP POP PUSH1 0xA0 DUP13 ADD CALLDATALOAD PUSH8 0xFFFFFFFFFFFFFFFF DUP2 GT ISZERO PUSH2 0x2C4 JUMPI PUSH2 0x2C3 PUSH2 0xBC JUMP JUMPDEST JUMPDEST PUSH2 0x2D0 DUP15 DUP3 DUP16 ADD PUSH2 0x19A JUMP JUMPDEST SWAP5 POP SWAP5 POP POP PUSH1 0xC0 DUP13 ADD CALLDATALOAD PUSH8 0xFFFFFFFFFFFFFFFF DUP2 GT ISZERO PUSH2 0x2F3 JUMPI PUSH2 0x2F2 PUSH2 0xBC JUMP JUMPDEST JUMPDEST PUSH2 0x2FF DUP15 DUP3 DUP16 ADD PUSH2 0x19A JUMP JUMPDEST SWAP3 POP SWAP3 POP POP SWAP3 SWAP6 SWAP9 SWAP12 POP SWAP3 SWAP6 SWAP9 SWAP12 SWAP1 SWAP4 SWAP7 SWAP10 POP JUMP JUMPDEST PUSH1 0x0 DUP3 DUP3 MSTORE PUSH1 0x20 DUP3 ADD SWAP1 POP SWAP3 SWAP2 POP POP JUMP JUMPDEST DUP3 DUP2 DUP4 CALLDATACOPY PUSH1 0x0 DUP4 DUP4 ADD MSTORE POP POP POP JUMP JUMPDEST PUSH1 0x0 PUSH1 0x1F NOT PUSH1 0x1F DUP4 ADD AND SWAP1 POP SWAP2 SWAP1 POP JUMP JUMPDEST PUSH1 0x0 PUSH2 0x351 DUP4 DUP6 PUSH2 0x314 JUMP JUMPDEST SWAP4 POP PUSH2 0x35E DUP4 DUP6 DUP5 PUSH2 0x325 JUMP JUMPDEST PUSH2 0x367 DUP4 PUSH2 0x334 JUMP JUMPDEST DUP5 ADD SWAP1 POP SWAP4 SWAP3 POP POP POP JUMP JUMPDEST PUSH1 0x0 PUSH1 0x80 DUP3 ADD SWAP1 POP DUP2 DUP2 SUB PUSH1 0x0 DUP4 ADD MSTORE PUSH2 0x38D DUP2 DUP11 DUP13 PUSH2 0x345 JUMP JUMPDEST SWAP1 POP DUP2 DUP2 SUB PUSH1 0x20 DUP4 ADD MSTORE PUSH2 0x3A2 DUP2 DUP9 DUP11 PUSH2 0x345 JUMP JUMPDEST SWAP1 POP DUP2 DUP2 SUB PUSH1 0x40 DUP4 ADD MSTORE PUSH2 0x3B7 DUP2 DUP7 DUP9 PUSH2 0x345 JUMP JUMPDEST SWAP1 POP DUP2 DUP2 SUB PUSH1 0x60 DUP4 ADD MSTORE PUSH2 0x3CC DUP2 DUP5 DUP7 PUSH2 0x345 JUMP JUMPDEST SWAP1 POP SWAP10 SWAP9 POP POP POP POP POP POP POP POP POP JUMP INVALID LOG2 PUSH5 0x6970667358 0x22 SLT KECCAK256 0xAD 0xDC PUSH8 0x2396B9A3D9E8773 0xB5 0xE8 CODESIZE PUSH12 0x56F6C792F726675460FE0966 PUSH29 0xB2E00ACD64736F6C634300081100330000000000000000000000000000 "},"methodIdentifiers":{"registerPoC(bytes32,address,uint256,string,string,string,string)":"c61d735c"}}}}}