{
  "_format": "hh3-artifact-1",
  "contractName": "PoCRegistry",
  "sourceName": "contracts/PoCRegistry.sol",
  "abi": [
    {
      "anonymous": false,
      "inputs": [
        {
          "indexed": true,
          "internalType": "bytes32",
          "name": "pocHash",
          "type": "bytes32"
        },
        {
          "indexed": true,
          "internalType": "address",
          "name": "target",
          "type": "address"
        },
        {
          "indexed": true,
          "internalType": "uint16",
          "name": "attackedVictimBlockNumber",
          "type": "uint16"
        },
        {
          "indexed": false,
          "internalType": "string",
          "name": "pocType",
          "type": "string"
        },
        {
          "indexed": false,
          "internalType": "string",
          "name": "metadataURI",
          "type": "string"
        },
        {
          "indexed": false,
          "internalType": "string",
          "name": "severity",
          "type": "string"
        },
        {
          "indexed": false,
          "internalType": "string",
          "name": "summary",
          "type": "string"
        }
      ],
      "name": "VerifiedPoC",
      "type": "event"
    },
    {
      "inputs": [
        {
          "internalType": "bytes32",
          "name": "pocHash",
          "type": "bytes32"
        },
        {
          "internalType": "address",
          "name": "target",
          "type": "address"
        },
        {
          "internalType": "uint16",
          "name": "attackedVictimBlockNumber",
          "type": "uint16"
        },
        {
          "internalType": "string",
          "name": "pocType",
          "type": "string"
        },
        {
          "internalType": "string",
          "name": "metadataURI",
          "type": "string"
        },
        {
          "internalType": "string",
          "name": "severity",
          "type": "string"
        },
        {
          "internalType": "string",
          "name": "summary",
          "type": "string"
        }
      ],
      "name": "registerPoC",
      "outputs": [],
      "stateMutability": "nonpayable",
      "type": "function"
    }
  ],
  "bytecode": "0x608060405234801561001057600080fd5b50610419806100206000396000f3fe608060405234801561001057600080fd5b506004361061002b5760003560e01c806397e6051814610030575b600080fd5b61004a600480360381019061004591906101f8565b61004c565b005b8861ffff168a73ffffffffffffffffffffffffffffffffffffffff168c7f890147dbd06332940592c417e7ab81abc4d6ab31e545d7b95fe82062257640c28b8b8b8b8b8b8b8b6040516100a698979695949392919061037a565b60405180910390a45050505050505050505050565b600080fd5b600080fd5b6000819050919050565b6100d8816100c5565b81146100e357600080fd5b50565b6000813590506100f5816100cf565b92915050565b600073ffffffffffffffffffffffffffffffffffffffff82169050919050565b6000610126826100fb565b9050919050565b6101368161011b565b811461014157600080fd5b50565b6000813590506101538161012d565b92915050565b600061ffff82169050919050565b61017081610159565b811461017b57600080fd5b50565b60008135905061018d81610167565b92915050565b600080fd5b600080fd5b600080fd5b60008083601f8401126101b8576101b7610193565b5b8235905067ffffffffffffffff8111156101d5576101d4610198565b5b6020830191508360018202830111156101f1576101f061019d565b5b9250929050565b600080600080600080600080600080600060e08c8e03121561021d5761021c6100bb565b5b600061022b8e828f016100e6565b9b5050602061023c8e828f01610144565b9a5050604061024d8e828f0161017e565b99505060608c013567ffffffffffffffff81111561026e5761026d6100c0565b5b61027a8e828f016101a2565b985098505060808c013567ffffffffffffffff81111561029d5761029c6100c0565b5b6102a98e828f016101a2565b965096505060a08c013567ffffffffffffffff8111156102cc576102cb6100c0565b5b6102d88e828f016101a2565b945094505060c08c013567ffffffffffffffff8111156102fb576102fa6100c0565b5b6103078e828f016101a2565b92509250509295989b509295989b9093969950565b600082825260208201905092915050565b82818337600083830152505050565b6000601f19601f8301169050919050565b6000610359838561031c565b935061036683858461032d565b61036f8361033c565b840190509392505050565b60006080820190508181036000830152610395818a8c61034d565b905081810360208301526103aa81888a61034d565b905081810360408301526103bf81868861034d565b905081810360608301526103d481848661034d565b9050999850505050505050505056fea26469706673582212207f4b51975e7bcd3e8ccb552cf83bd8c4aef1551c911e9e092a5e18acb4f3ab4d64736f6c63430008110033",
  "linkReferences": {},
  "deployedLinkReferences": {},
  "immutableReferences": {},
  "inputSourceName": "project/contracts/PoCRegistry.sol",
  "buildInfoId": "solc-0_8_17-5c9df90126aefea2c5aad35b86fca356e4e8dc51"
}